S013000044485431315F53656E736F722E733337C6
S3150800000000100020B5070008F33C0008F33C000880
S31508000010F33C0008F33C0008F33C0008F33C0008F6
S31508000020F33C0008F33C0008F33C0008F33C0008E6
S31508000030F33C0008F33C0008F33C0008F33C0008D6
S31508000040F33C0008F33C0008F33C0008F33C0008C6
S31508000050F33C0008F33C0008F33C0008F33C0008B6
S31508000060F33C00086D0400080F3C0008F33C000848
S31508000070F33C0008F33C0008F33C0008F33C000896
S31508000080F33C0008F33C0008F33C0008F33C000886
S31508000090F33C0008510F0008F33C0008F33C000845
S315080000A0F33C0008F33C0008F33C0008F33C000866
S315080000B0F33C0008F33C0008F33C0008F33C000856
S315080000C0F33C0008F33C0008F33C0008F33C000846
S315080000D0F33C0008F33C0008F33C0008F33C000836
S315080000E0F33C0008F33C0008F33C0008F33C000826
S315080000F0F33C0008F33C0008F33C0008F33C000816
S31508000100F33C0008F33C0008F33C0008F33C000805
S31508000110F33C0008F33C0008F33C0008F33C0008F5
S31508000120F33C0008F33C0008F33C0008F33C0008E5
S31508000130F33C0008F33C0008F33C0008F33C0008D5
S31508000140F33C0008F33C0008F33C0008F33C0008C5
S31508000150F33C0008F33C0008F33C0008F33C0008B5
S31508000160F33C0008F33C0008F33C0008F33C0008A5
S31508000170013800D0FCE770470348044B834202D09D
S31508000180034B03B1184770478010002080100020E9
S3150800019000000000064B0749C91A891048BF0131FB
S315080001A0491003D0044B0BB101481847704700BFEC
S315080001B080100020801000200000000010B5064CBA
S315080001C0237843B9FFF7D8FF044B13B10448AFF3BC
S315080001D000800123237010BDCC130020000000000E
S315080001E0F849000808B5054B1BB105490548AFF3A2
S315080001F00080BDE80840FFF7CDBF00BF0000000043
S3150800020080100020F8490008A3F5803A704700BF1F
S31508000210174B002B08BF134B9D46FFF7F5FF002130
S315080002208B460F461348144A121A03F081FF0E4BE9
S31508000230002B00D098470D4B002B00D09847002084
S31508000240002104000D000D48002802D00C48AFF329
S31508000250008003F0DBF82000290000F085F902F0A1
S315080002601BFF00BF0000080000000000000000009F
S315080002700010002080100020F41300200000000069
S315080002800000000010B5274C01F0CCFB01F0F4FD8E
S31508000290236F23F0070343F00303236703F091FD5D
S315080002A0214B00209B6ADB015EBF4FF480321F4B57
S315080002B09A62D4F8203123F0070343F00203C4F806
S315080002C02031D4F8283123F0070343F00203C4F899
S315080002D02831D4F8403123F0030343F00203C4F86D
S315080002E04031D4F8603123F0030343F00203C4F825
S315080002F06031D4F8403223F0030343F00203C4F814
S315080003004032D4F8003223F0070343F00203C4F85E
S315080003100032D4F8083223F0070343F00203C4F886
S31508000320083210BD008000500040005A0060005A94
S3150800033007B501A802F0D2F89DF80530012B14D1B3
S315080003409DF804308BB94FF48012114B1149586E41
S3150800035003F580535A664B6B23F0E05343F0406332
S315080003604B63C3025CBF0C4B5A6602F0DFFA03F01C
S3150800037068FC02F065FA02F0C3FA02F089FAFFF7A0
S3150800038081FF02F073FA03B05DF804EB03F04EBC8C
S31508000390008000500040005A00A0005030B595B0CB
S315080003A0234D0DAC0FCD0FC495E80700032384E851
S315080003B007008DF84D3029231E4A1F49CDE902232F
S315080003C040F20153CDE9041300210E220DF1260057
S315080003D0069103F0ADFE4FF48020184B0DAACDE927
S315080003E0070309238DF824300A238DF82530144B8A
S315080003F014480A9320230B9301238DF83130124BAE
S3150800040007A9009302AB02F05DFD044618B18821E6
S315080004100E4803F082FC9DF832304FF4E130002B91
S315080004200CBF0321002103F055FC204615B030BD52
S31508000430D045000800C005500008000924C0055032
S31508000440CD130020E410002098100020A0450008D5
S3150800045008B5FFF7A3FF28B1BDE80840B821024850
S3150800046003F05BBC08BD00BFA0450008014803F0C7
S31508000470AEBD00BFE4100020024B586FC0F38000E9
S31508000480704700BF00C003502DE9F7430024054616
S3150800049088463A20012116461F4600948DF80440E6
S315080004A001F070F8022123460422012001F084FE9F
S315080004B004222C4B44F250601A6702F0C1FD012158
S315080004C03A2001F05FF8012223461046022101F086
S315080004D073FE282002F0B4FDFFF7CEFF0028FBD0FC
S315080004E0FFF7CAFF0128FBD00024FFF7C5FF002845
S315080004F0FBD00022FFF7C0FF012802F101092DD029
S3150800050002AB03EBD40111F8083CD2B25B0001340C
S31508000510DBB20A2AE4B288BF43F00103282C01F8AB
S31508000520083CE2D19DF801309DF800109DF80200C4
S315080005309DF80320CC1804449DF804C01444E4B282
S31508000540A44515BFFF2328703370317012BF2B7076
S3150800055088F800203B7003B0BDE8F08302F070FD18
S315080005604A46C7E700E0035007B503F068FD01A84F
S3150800057001F0B4FF9DF80530012B14D19DF8043025
S315080005808BB94FF48012214B2149586E03F58053DD
S315080005905A664B6B23F0E05343F040634B63C30248
S315080005A05CBF1C4B5A6600231B4C1C4E1C4D8DF819
S315080005B001308DF802308DF803308DF8043003F0E1
S315080005C04BFD01AB0DF102020DF103010DF1010026
S315080005D0FFF75AFF03F01DFB03F01CFB31469DF89D
S315080005E004309DF80220206803F07CFC03F011FB20
S315080005F003F010FB29469DF803309DF8012020687A
S3150800060003F070FC074802F01BFDD8E70080005095
S315080006100040005A00A00050FC100020EC450008DD
S31508000620FD45000840420F0008B50122074B1A7025
S315080006300022074B1A700422064B1A701F22064B1B
S315080006401A7002F09DF9054B186008BD7610002057
S31508000650ED1300207510002074100020FC100020F7
S315080006601022024BC3F8A020704700BF00D00350E9
S315080006701022024BC3F8A020704700BF00E00350C9
S3150800068070B588B03F4D01AC0FCD0FC495E8070093
S3150800069084E80700012401213A2000F073FF3A4E4E
S315080006A00121292000F06EFF384B304601A903933B
S315080006B08DF8124002F06CF82346214604220220E7
S315080006C001F07AFD022122460846002301F074FD56
S315080006D0234604220321022001F06EFD042223464C
S315080006E01146022001F068FD294D2A4B4FF4487047
S315080006F0C5F834374FF00213C5F83037A3F5803301
S31508000700C5F838371C23C5F8203702F099FC1420A1
S31508000710FFF7AEFF02F094FC2320FFF7A1FF02F0DB
S315080007208FFCB9213046FFF7A3FF03F081FBFFF7E3
S3150800073097FF002321461A46022001F03DFD0023BB
S3150800074002211A46084601F037FD234600220321F6
S31508000750022001F031FD234600220421022001F087
S315080007602BFD304601F07EFF00212920C5F83417FD
S31508000770C5F83017C5F83817C5F8201700F002FF76
S3150800078008B070BD1046000800C0055000127A0077
S3150800079000C00350020003000348044A0449121A21
S315080007A0921003F0A7BA00BF8C4A00088C4A0008CA
S315080007B0F413002008B500F02FF8FFF7EDFF124BF1
S315080007C012498B4212D30020114B12498B4218D37F
S315080007D0FFF71EFD186850F82240586840F8224076
S315080007E0013298688242F5D30C33EAE70022F8E72B
S315080007F01C6844F8220001325C68A242F8D3083328
S31508000800E4E70022F8E700BF004A00080C4A00089F
S315080008100C4A00080C4A000810B54FF480414FF006
S31508000820FF30114B114A9A60D3F8882042F47002BF
S31508000830C3F888200E4A91660E4901F500521066E3
S315080008400D4850660220C3F8D000BFF34F8FBFF3A0
S315080008506F8F01244FF440330848C0F88041D360B5
S3150800086004600B6110BD00BF00ED00E00000000849
S315080008700090005000800044F7FF370000E100E0D8
S31508000880014B1868704700BF04100020084B1B6F07
S3150800089003F00703022B04D0032B05D0012B05D048
S315080008A0FEE7044B18687047034BFBE7034870479D
S315080008B000800050041000200C100020002D31018B
S315080008C008B5FFF7E3FF054B1B6FC3F3033301338B
S315080008D0B0FBF3F0024B186008BD00BF0080005063
S315080008E0001000200048704700B4C404014B186883
S315080008F0704700BF0C100020054B1860054B1B6F96
S3150800090003F00703032B01D1FFF7DABF704700BFD7
S315080009100C1000200080005000487047002D31015F
S315080009204FF0B4439868C0F304400C280AD8DFE8AF
S3150800093000F00B0909090909072119091B1D1F00E0
S315080009400F487047002070479B6803F04073B3F167
S31508000950807F11D0B3F1007F10D00A4A002B08BF60
S315080009601046704708487047084870470848704757
S31508000970084870470848704708487047084870474D
S31508000980405DC60000093D00C0EA210180BA8C011D
S315080009900048E801005A62020024F40080841E0020
S315080009A040420F00014B1868704700BF081000202E
S315080009B00346054A0549106803448B428CBF4FF02D
S315080009C0FF301360704700BF10100020000004209D
S315080009D008B501213A2000F0D5FD012304220321A0
S315080009E0002001F0E9FB002003F021FA0122354B33
S315080009F03549C3F844244FF40022A3F550335A6608
S31508000A00324BD3F8FC20D20146D4D1F8803023F0FB
S31508000A10030343F00203C1F880304FF4607000F01E
S31508000A20D9FD2A4B00F5D520D3F8F02000F2FC407A
S31508000A3042F00102C3F8F020D3F8FC2042F080729D
S31508000A40C3F8FC20224AA3F55D431A60214B022213
S31508000A50B0FBF3F0204B01381861C3F8F0204FF4CF
S31508000A608072C3F804234FF060431C4A0020C3F881
S31508000A70B02F1B4AC3F8802ED3F8002E42F480729A
S31508000A80C3F8002EFF2283F82020D3F8002E22F484
S31508000A908072C3F8002E08BDD3F8FC2022F08072BD
S31508000AA0C3F8FC20D1F8802022F0030242F00202AB
S31508000AB0C1F88020D3F8FC2042F08072C3F8FC20ED
S31508000AC0ABE700BF00D003500080005000ED00E007
S31508000AD0FF030040F8590D00000004E055CEACC5F0
S31508000AE00900010030B54FF06043D3F8802ED207D5
S31508000AF015D501240B4D8440D5F8FC2042F08072B0
S31508000B00C5F8FC20D3F8002E2243C3F8002E53F86C
S31508000B102020002AF0D003F82010002030BD112034
S31508000B20FCE700BF00ED00E02DE9F04F85B09A46DE
S31508000B30554B06461B780F461546DDF83C909DF842
S31508000B4044B0DDF85080002B00F09780072A00F2A9
S31508000B5096800E9B002B00F09280B9F1000F00F0F2
S31508000B608E80129BB3F5006F00F38980012803D1AC
S31508000B70109B002B00F08380444B03EB05131B7B73
S31508000B80002B7ED0424C10220021684603F0D0FA92
S31508000B9004EB45141022A7BB3946204603F0C8FAD1
S31508000BA043F210036380BBF1000F03D1E37843F0EF
S31508000BB00303E370364A0E9B02EB451CCCE901930E
S31508000BC0129B6901581E9DF84C30C0F30A0003F0C9
S31508000BD003039B0643EA001E53582E48012E00EADB
S31508000BE003004EEA0003CDF800A0535017D0B8F121
S31508000BF0000F2ED19CF8023068F304138CF80230EB
S31508000C0027E00021204603F093FA4FF444736380EB
S31508000C10BBF1000FCED1E37843F03003C9E71323C5
S31508000C200CF1100ECCF80C309CE80F008EE80F0083
S31508000C306FF00301DCF81C20109B61F39F02012F63
S31508000C40CCF81C20CCF8143003D1CCF81890CCF88A
S31508000C50043000270D4A290102EB051342F80180EA
S31508000C60159A28465A60694622469F605E7301F0C7
S31508000C7075FB384605B0BDE8F08F0748FAE7074820
S31508000C80F8E70748F6E700BFEE1300200012002039
S31508000C90001100200F80FFF3028000F0018000F0B1
S31508000CA0078000F038B5124B05461B78DBB1E0B17A
S31508000CB003F0A3F80F4A00231146147B54B92B609E
S31508000CC001251A0101EB03131D738C5003F09BF8E1
S31508000CD0204638BD0133082B02F11002EDD103F08E
S31508000CE092F80548F5E70548F3E70548F1E700BF38
S31508000CF0EE13002000120020048000F0028000F0AD
S31508000D00018000F038B503F078F8002305460B4A51
S31508000D10147B6CB90133082B02F11002F8D101F0EB
S31508000D2095FA074B28461C7003F06DF8204603E039
S31508000D30284603F068F8034838BD00BF00120020B3
S31508000D40EE130020058000F010B50D4B04461B7805
S31508000D5093B1072812D803F050F80A4B03EB041393
S31508000D601A7B2AB100241C7303F04DF8204610BDE7
S31508000D7003F049F80448FAE70448F8E70448F6E7B0
S31508000D80EE13002000120020068000F0028000F01A
S31508000D90018000F013B5154B1868002301908DF8F3
S31508000DA0043003F02AF8124B1C7824B103F02BF810
S31508000DB0104802B010BD01221A7003F024F80E4B39
S31508000DC001A81C731C7783F82C4083F83C4083F8F1
S31508000DD04C4083F85C4083F86C4083F87C400823D9
S31508000DE08DF8073001F070FA2046E2E72C46000835
S31508000DF0EE130020038000F00012002008B50A4A0E
S31508000E0012785AB107280BD8084A02EB00131B7B45
S31508000E1043B1002101F038FA002008BD0448FCE778
S31508000E200448FAE70448F8E7EE1300200012002009
S31508000E30028000F0018000F0078000F008B50A4A39
S31508000E4012785AB107280BD8084A02EB00131B7B05
S31508000E5043B1012101F018FA002008BD0448FCE757
S31508000E600448FAE70448F8E7EE13002000120020C9
S31508000E70028000F0018000F0078000F008B50A4AF9
S31508000E80127852B107280AD8084A02EB00131B7BCE
S31508000E903BB101F0E5FA002008BD0548FCE7054826
S31508000EA0FAE70548F8E700BFEE1300200012002015
S31508000EB0028000F0018000F0078000F00D4B1B78DF
S31508000EC093B1072812D889B10B4B03EB00131B7B90
S31508000ED073B10A4B1A6D01238340134214BF0123D1
S31508000EE0002300200B707047054870470548704777
S31508000EF005487047EE130020001200200000045039
S31508000F00028000F0018000F0078000F010B50B4A5F
S31508000F100C46127862B107280CD859B1084A02EB78
S31508000F2000131B7B43B101F0B7FA2070002010BDF7
S31508000F300448FCE70448FAE70448F8E7EE130020FB
S31508000F4000120020028000F0018000F0078000F007
S31508000F502DE9F041174B1F6D5B6D1F4000D5FEE76D
S31508000F6001260025144CDFF85880374218D023682C
S31508000F70C8F85060A3B1A168284601316268A1602B
S31508000F809847637B012B0BD150B90C4B03EB4513E8
S31508000F901A7B60F341021A731A7F60F341021A77CB
S31508000FA00135082D4FEA460604F11004DDD1BDE8E7
S31508000FB0F08100BF0000045000120020001100203C
S31508000FC000200450044BD3F88420D206FBD4D3F86F
S31508000FD08400C0F3811070470040005038B5124BAA
S31508000FE00546D3F880300C4603F00303022B0BD0DA
S31508000FF0032B0DD0012B0FD1FFF748FC0E2305B1AB
S31508001000286004B1236038BDFFF78AFC0723F6E79A
S31508001010FFF736FC0623F2E7044841F2DF1102F037
S315080010207CFE00231846EAE7008000503046000898
S3150800103038B51A4B0546D3F820010C4600F00700D0
S31508001040062821D8DFE800F028040C1410181C0024
S31508001050FFF716FC052305B1286004B1236038BDE7
S31508001060FFF744FC0323F6E7FFF75AFC0723F2E7EA
S31508001070FFF752FC0223EEE7FFF702FC0623EAE736
S31508001080FFF734FC0423E6E7054841F25C2102F049
S3150800109044FE00231846DEE70123DCE70080005003
S315080010A03046000838B5194B0546D3F828310C46A2
S315080010B003F00703013B052B20D8DFE803F00313F1
S315080010C01B0F0B17FFF7DCFB052305B1286004B1DE
S315080010D0236038BDFFF7D4FB0623F6E7FFF720FCAD
S315080010E00723F2E7FFF702FC0323EEE7FFF7FEFB11
S315080010F00423EAE7FFF710FC0223E6E7044841F277
S31508001100640102F00AFE00231846DEE7008000505C
S3150800111030460008F7B50027144B0197D3F88041ED
S31508001120064604F00304022C0D4614D0032C0DD0F9
S31508001130012C14D1394601A8FFF77AFF10240EB105
S31508001140019B336005B12C6003B0F0BDFFF7E8FBE7
S3150800115007240190F3E7FFF7DFFB0190EFE741F281
S31508001160B131034802F0D9FD3C46E8E7008000505B
S315080011703046000837B500230193194B0546D3F8C6
S3150800118020320C4603F00703042B1FD8DFE803F0D0
S3150800119025030F141900002101A8FFF783FF122366
S315080011A00DB1019A2A6004B1236003B030BDFFF780
S315080011B0B7FB07230190F3E702F0A9FD0A23019084
S315080011C0EEE7FFF7EFFB09230190E9E741F2230178
S315080011D0044802F0A2FD0023E2E70123E0E700BF8E
S315080011E0008000503046000838B5104B0546D3F845
S315080011F040310C4603F00303022B0BD0032B0DD012
S31508001200012B0FD102F083FD0A2305B1286004B132
S31508001210236038BDFFF7C6FB0923F6E702F07AFD1F
S315080012200C23F2E701230020EFE700BF00800050FF
S3150800123037B500230193184B0546D3F860320C46A0
S3150800124003F00703013B032B1FD8DFE803F0020E68
S315080012501914002101A8FFF7EBFE10230DB1019A1E
S315080012602A6004B1236003B030BD002101A8FFF74E
S31508001270BBFF1123F2E7FFF753FB07230190EDE7C6
S31508001280FFF74AFB02230190E8E741F2C801034849
S3150800129002F043FD0023E1E70080005030460008D5
S315080012A037B500230193184B0546D3F894320C46FC
S315080012B003F00703013B032B1FD8DFE803F0020EF8
S315080012C01914002101A8FFF7B3FE10230DB1019AE6
S315080012D02A6004B1236003B030BD002101A8FFF7DE
S315080012E083FF1123F2E7FFF71BFB07230190EDE7C6
S315080012F0FFF712FB02230190E8E741F2FB010348DE
S3150800130002F00BFD0023E1E700800050304600089C
S3150800131073B500240F4B0194D3F87032064603F0D8
S315080013200303012B0D4607D0022B11D041F22611DB
S31508001330094802F0F2FC04E0214601A8FFF754FF31
S3150800134011240EB1019B336005B12C6002B070BD4B
S315080013501524F6E7008000503046000838B5164BCD
S315080013600546D3F800020C4600F00700042819D8F1
S31508001370DFE800F020030B0F130002F0C8FC0A2375
S3150800138005B1286004B1236038BDFFF70BFB0923BC
S31508001390F6E702F0BFFC0C23F2E7FFF791FA0F23FA
S315080013A0800AEDE7054841F26F4102F0B6FC0023DA
S315080013B01846E5E70123E3E70080005030460008B9
S315080013C038B5164B0546D3F808020C4600F0070058
S315080013D0042819D8DFE800F020030B0F130002F0E9
S315080013E096FC0A2305B1286004B1236038BDFFF7CF
S315080013F0D9FA0923F6E702F08DFC0C23F2E7FFF78A
S315080014005FFA0F23800AEDE7054841F2A74102F08B
S3150800141084FC00231846E5E70123E3E70080005033
S315080014203046000838B5104B0546D3F840320C460E
S3150800143003F00303022B0BD0032B0DD0012B0FD186
S3150800144002F065FC0A2305B1286004B1236038BDA3
S31508001450FFF7A8FA0923F6E702F05CFC0C23F2E78B
S3150800146001230020EFE700BF0080005038B5104B7D
S315080014700546D3F860310C4603F00303022B0BD064
S31508001480032B0DD0012B0FD102F041FC0A2305B125
S31508001490286004B1236038BDFFF784FA0923F6E70C
S315080014A002F038FC0C23F2E701230020EFE700BF27
S315080014B00080005010B5B0F5207F2ED009D8B0F5C1
S315080014C0007F24D003D868B1B0F5C07F0AD00024C5
S315080014D01BE0B0F5607FFAD1124BD3F88040C4F315
S315080014E0011412E00F4B1C6F230B13F00E0FC4F3FD
S315080014F003340AD0072C08D00F2C06D0032C04D0AE
S3150800150040F28521084802F008FC601C10BD054B16
S31508001510D3F89040C4F30464F7E7024B1C6FC4F396
S315080015208024F2E7008000503046000838B54FF4B2
S315080015308032104B04469A6600200D46FFF7BAFF24
S3150800154041F671320C4B6043DC69DA635A6804F47D
S31508001550803422F440125DB90849884294BF0020BD
S315080015600120000502435A600CB10022DA6338BD37
S315080015700349F2E70090005000000350005A620247
S31508001580002D310138B5430904460D460ED140F207
S315080015902F310D4802F0C1FB002304F01F0485B16A
S315080015A003F580530122A2401A6038BD012B04D0EE
S315080015B0022B04D040F23D31EBE7044BEDE7044B38
S315080015C0EBE703F50053EDE730460008648000506A
S315080015D06880005030B585B0002180280446CDE9E2
S315080015E0001100F09F8035D85E2846D85E2844D87A
S315080015F0DFE800F09E4343434343434343434343A7
S31508001600434343434343434343434343434343439C
S31508001610434343439EAB9EABBBBBBBBBBBABC550B7
S31508001620DB7450ABABAB4343434343434343ABAB9E
S31508001630AB7CE5AB434343434343434343434343C1
S3150800164043BB9E9E9EE05050EA8B61C04343434392
S3150800165043939E00B0F5B06F00F0918030D8B0F596
S31508001660207F72D00FD8B0F5C07F61D0B0F5007F6B
S3150800167061D0B0F5807F00F0878040F294415548EC
S3150800168002F04BFB51E0B0F5607F69D00DD8B0F59C
S31508001690407FF2D1FFF714F904464FF42070FFF7A4
S315080016A009FFB4FBF0F4640858E0B0F5806F5CD02D
S315080016B0B0F5A06FE1D100216846FFF75BFD34E085
S315080016C0B0F5106F76D016D8B0F5E06F77D00AD897
S315080016D0B0F5C06F69D0B0F5D06FCED1002168469D
S315080016E0FFF73CFE21E0B0F5F06FC6D10021684651
S315080016F0FFF7BCFE19E0B0F5406F3BD00AD8B0F54D
S31508001700206F61D0B0F5286FB7D100216846FFF782
S31508001710FFFD0AE0B0F5486FAFD100216846FFF734
S31508001720BFFD02E0FFF7B2F80090009805B030BDA3
S31508001730FFF7C6F8F8E7FFF7A9F805462046FFF7CA
S31508001740B9FEB5FBF0F50095EFE7FFF7B9F80446E3
S315080017504FF42070FFF7AEFEB4FBF0F40094E4E714
S3150800176001A8FFF73BFC019DE8E700216846FFF763
S315080017705FFCDAE700216846FFF794FCD5E700210D
S315080017806846FFF7C7FCD0E74FF0E02302911B69D4
S315080017905B0705D5FFF794F80290029B0093C4E710
S315080017A003A902A8FFF720FDF7E700216846FFF71F
S315080017B01BFDBAE700216846FFF702FEB5E70021E0
S315080017C06846FFF72FFEB0E700216846FFF730FDB1
S315080017D0ABE700BF3046000808B58020FFF7FAFEE1
S315080017E0034B98429EBF4FF48032024B1A6708BDDE
S315080017F0005A620200A000501FB503460020B3F548
S31508001800807F019000F0C28063D85D2B54D84C2BA2
S3150800181006D82D2B46D8232B2AD840F27951A4E096
S315080018204D3B102BF9D801A252F823F08319000872
S315080018301B1800081B1800081B1800083519000893
S315080018401B1800081B180008071A00085319000877
S31508001850F9180008FD1900081B1800081B180008CD
S315080018601B1800081B1800081B180008111A000886
S31508001870243B092BD1D801A252F823F0831900087A
S3150800188083190008831900088319000883190008BA
S315080018901B180008731900081B18000815190008FA
S315080018A0B91900083D2B00F082803E2BB5D10020E7
S315080018B001A9FFF7B7FD60E0802BAED1574B1B6F30
S315080018C003F00703013B032B4DD8DFE803F04A4733
S315080018D0878FB3F5F06F6AD021D8B3F5B06F48D0CB
S315080018E00FD8B3F5607F00F0858096D3B3F5806F87
S315080018F047D0B3F5A06F90D1002001A9FFF73AFCB5
S315080019003BE0B3F5D06F57D0B3F5E06FCFD0B3F562
S31508001910C06F82D1002001A9FFF766FC2DE0B3F560
S31508001920206F70D00BD8B3F5086F4AD0B3F5106F97
S315080019307FF473AF002001A9FFF742FD1DE0B3F560
S31508001940406F5BD0B3F5486F62D0B3F5286F7FF46C
S3150800195064AF002001A9FFF7DBFC0EE00523019325
S315080019600BE00223FBE740F2C6412D4802F0D5F909
S3150800197003E0002001A9FFF7CDFB019805B05DF84B
S3150800198004FB002001A9FFF753FBF6E74FF0E0231D
S3150800199002901B695B0705D5FEF792FF0D2303939B
S315080019A0039BDCE703A902A8FFF71EFCF8E7002063
S315080019B001A9FFF75BFDE0E7002001A9FFF7CEFCD0
S315080019C0DBE7164BD3F8003103F00303022B07D0ED
S315080019D0032B09D0012B0BD1FEF788FF0323BEE7A3
S315080019E0FEF7E0FF0923BAE702F08FF90823B6E706
S315080019F00123B4E701A9FFF7F1FABEE7002001A920
S31508001A00FFF750FBB9E7002001A9FFF711FCB4E77F
S31508001A10002001A9FFF744FCAFE700BF0080005093
S31508001A20304600084FF48012034B5A664FF4803252
S31508001A30024B9A62704700BF009000500050005A4F
S31508001A4038B5036804460F2B04D940F66D317C4837
S31508001A5002F063F963680F2B04D94FF437617848AD
S31508001A6002F05BF9A3680F2B04D940F6733174486A
S31508001A7002F053F9237B0F2B04D940F676317048D0
S31508001A8002F04BF9637B0F2B04D940F679316C4889
S31508001A9002F043F9A37B3F2B04D940F67C31684812
S31508001AA002F03BF9E37B3F2B04D940F67F316448CB
S31508001AB002F033F92369032B04D940F682316048D2
S31508001AC002F02BF96369032B04D940F685315C488B
S31508001AD002F023F9E369032B04D940F68831584804
S31508001AE002F01BF98020FFF787FE032800F08380A9
S31508001AF04FF48012534B4FF0A0615A6645F60E021A
S31508001B00514BC3F88020514A91624FF4803102F557
S31508001B10805291629A6DD203FCD4996D11F080417E
S31508001B20FBD1D4E90002120542EA0062E07B0243D7
S31508001B30207B42EA0042607B42EA0032A07B42EA0E
S31508001B4080121A619869D4E90452120642EA85623B
S31508001B5000F000400243A07EE57E0243207E42EA72
S31508001B600042607E42EA00229A611A6AE06922F01F
S31508001B700F0242EA8502364D00283DD11A6294F8D2
S31508001B802420996A94F82000D200294042EA40129B
S31508001B900A4394F8211042EA011242F480329A620A
S31508001BA02C49294A936D31EA0303FBD14FF0807122
S31508001BB0264881621369A56823F4700343EA05532E
S31508001BC013614FF00043836194F822300BB9224B1E
S31508001BD0996294F823303BB94FF480321E4B9A62CF
S31508001BE0194A936D5B00FCD494F825301BB1164B4B
S31508001BF01A4AC3F8802038BD024342F00802022878
S31508001C001A6208D119614FF40852996114484FF4C1
S31508001C107F4102F0B4F80C4994F822308A6A94F8A5
S31508001C2020001B062A4043EA4013134394F8242055
S31508001C3043EAC20394F8232043EA02438B62D3E7BC
S31508001C4030460008009000500040005A0050005AE4
S31508001C50C7FFFEFE030001000060005AF1A7FFFF60
S31508001C603440005A014B93F9000070477710002062
S31508001C7010B543680446072B04D940F6B3512A48E1
S31508001C8002F04BF8A368032B04D940F6B551264851
S31508001C9002F043F82378032B04D940F6B7512248BB
S31508001CA002F03BF894F90130002B04DA40F6B951FA
S31508001CB01D4802F032F84FF400011C4A6378516659
S31508001CC04FF4D151022002F5B832516218494F2B10
S31508001CD048604FF0010028BF4F2301F58051486046
S31508001CE01169C903FCD4217843EA01235361D4E975
S31508001CF001131B0143EA0123617B0B43217B43EA62
S31508001D0041039360E37BA17B1B0143EA4113617C9A
S31508001D100B43217C43EA41035360A37C13B16FF460
S31508001D20D153536210BD00BF3046000800900050E2
S31508001D3000100250014B1880704700BF7210002037
S31508001D40014B1880704700BF7010002038B5B0F5F9
S31508001D50207F77D00ED8B0F5007F61D003D890B336
S31508001D60B0F5C07F2FD040F21231BDE838403D486B
S31508001D7001F0D3BFB0F5607FF5D13B4A4C1ED2F8CF
S31508001D80FC5015F080751EBFD2F8FC3023F0807326
S31508001D90C2F8FC30032C04D940F2F221314801F094
S31508001DA0BCFF324AD2F8803023F0300343EA0413EA
S31508001DB0C2F8803035B12C4AD2F8FC3043F0807333
S31508001DC0C2F8FC3038BD4C1E012C0AD9102903D89C
S31508001DD0274BCB40DB0704D440F2C721214801F04A
S31508001DE09CFF01F0DBFF01F0E7FF4FF48031214B48
S31508001DF01E4A1967136F23F4704343EA04331367C3
S31508001E00FEF75EFD0446FFF7DDF8C0F10201204645
S31508001E1001F0CCFF00F040F8BDE83840FFF7DCBC25
S31508001E204C1E1F2C04D940F206310E4801F075FFEE
S31508001E300E4AD2F8903023F0F85343EA0463C2F806
S31508001E409030BFE74C1E012C04D94FF44371054866
S31508001E5001F063FF054A136F23F4806343EA842382
S31508001E601367AFE73046000800ED00E00080005039
S31508001E70100101000090005008B50121022000F071
S31508001E802FF801F08BFF01F097FF4FF48032014BDA
S31508001E901A6708BD0090005008B54FF4C070FFF7E8
S31508001EA099FBBDE808400449884294BF01210221F4
S31508001EB04FF42070FFF74ABF80F0FA02024A536BCC
S31508001EC00342FCD1704700BF00400950034A01791C
S31508001ED0D36E23F030030B43D3667047004000509F
S31508001EE0F8B50446244BD3F88420D006FBD4D3F89F
S31508001EF08430C3F381139C423CD0FEF7C7FC012C07
S31508001F0005460BD11D4B984204D940F292711C48E4
S31508001F1001F003FF0121284601F048FF01F066FFA2
S31508001F204FF00072174B07465A66204601F06EFFBF
S31508001F304FF48063104E621E93403367736E9A01A6
S31508001F4003D4D6F884309B060AD5384601F052FFEA
S31508001F50022C0FD12846BDE8F840002101F026BF23
S31508001F60D6F884309906E9D54FF4F461044801F0AF
S31508001F70D4FEE3E7F8BD00BF00400050005A6202F5
S31508001F807D4600080060005010B50C4608B9FEF7FB
S31508001F907DFC074B21461B783BB1064B984204D87B
S31508001FA00120BDE81040FFF79BBF0220F9E700BFFC
S31508001FB0EF130020005A620238B54FF00042244B56
S31508001FC0244C5A664AF6CD33656C014605F0010580
S31508001FD0236428BB0120FFF771FF6368DB0715D56B
S31508001FE01D4B586008461D4B226BD2070CD49842ED
S31508001FF008D1072415B1174B194A1A6401F007FFCF
S31508002000204638BD0130EFE79842F2D00024F1E7C8
S315080020100132236B13F0080305D08A42F8D1E8E7AA
S3150800202000220E49F5E78A42E3D020210A4A916246
S315080020300121A2F5805251600649084A886A80063D
S3150800204003D49342D5D00133F8E79342DDE700BFC6
S3150800205000900050004009500060095040420F00AF
S315080020603254FFFF38B54FF00042164B01465A6608
S315080020704AF6CD33144C154A656C236443780B2015
S315080020805B0043F00103D363FFF718FF63688A78A0
S3150800209023F4F87343EA02136360CA784B7943EA78
S315080020A00223A3600A798B7943EA0223236108781D
S315080020B0FFF782FFEB0744BF054B236401F0A7FE39
S315080020C0012038BD009000500040095000400050E3
S315080020D03254FFFF70B50F28044605D940F62D6126
S315080020E0124801F01AFE0F244FF00042104B114916
S315080020F05D6E03F580535A664AF6CD334E6C8020E2
S315080021000B64FFF7DBFE0B6A23F00F0323430B6216
S31508002110F30744BF084B0B64002DA2BF4FF00042E3
S31508002120064B5A6601F073FE70BD00BF7D46000877
S3150800213000800050004009503254FFFF00A00050B4
S3150800214038B5032804460D4605D8094B33F8103030
S31508002150CB40DB0704D440F22D41064801F0DDFDF3
S31508002160302301225C43044BAA401A5138BD00BFF4
S3150800217066470008CA46000840D0035038B5032809
S3150800218004460D4605D8094B33F81030CB40DB071B
S3150800219004D440F2FE31064801F0BFFD3023012287
S315080021A05C43044BAA401A5138BD00BF6647000875
S315080021B0CA46000840E003502DE9F04103280446CA
S315080021C00D461746984605D81D4B33F81030CB40B8
S315080021D0DB0704D44FF4B0711A4801F09EFD37B1FD
S315080021E029462046B8F1000F20D0FFF7A9FF0F2196
S315080021F0072D04EB440688BFA5F108034FEA061627
S31508002200114895BFAB009B0004360C3607FA03F25B
S315080022109940304401F0FCFD7FB929462046B8F1C3
S31508002220000F06D0BDE8F041FFF78ABFFFF7A6FF0B
S31508002230DDE7BDE8F041FFF7A1BFBDE8F08100BFCB
S31508002240664700081847000830C0035010B54FF419
S3150800225000120B4BC3F88020BFF34F8FBFF36F8F6D
S315080022600024FF22074B21465C6520209A625C60A9
S31508002270FFF788F92146BDE810402120FFF782B90B
S3150800228000E100E00000045038B5072804460D4672
S3150800229003DD7721084801F040FD1F2C03D9912161
S315080022A0064801F03AFD064A064B002D08BF1346BC
S315080022B00122A2401A6038BD6E470008BC470008D4
S315080022C0401004504020045010B5044618B9912116
S315080022D01F4801F022FD23781B0613F0604F03D038
S315080022E092211B4801F019FDE3780F2B03D9A3218E
S315080022F0174801F012FD01212020FFF743F90121BB
S315080023002120FFF73FF90122124B5A602278120664
S315080023109A606178A27842EA01429A61FF229A623B
S3150800232000229A631A644FF000425A654FF0FF3252
S315080023304FF4001103F500531A65074AC2F88011D5
S31508002340E3781B01DBB282F81533116010BD00BFBC
S315080023506E4700080000045000E100E02DE9F04156
S315080023600126C3B2072805460C46904606FA03F628
S3150800237003DDEC21364801F0D0FC1CB9ED213448C8
S3150800238001F0CBFC236823F47C1323F00F031BB165
S31508002390F0212F4801F0C1FCA37A1B0413F47C0F2B
S315080023A004D040F209112A4801F0B7FCE37A1B056C
S315080023B013F07E6F04D040F20B11254801F0ADFCF6
S315080023C0237B5B0513F0FE5F04D040F20D11204815
S315080023D001F0A3FC1F4B204F1E65AB00226803F1DA
S315080023E0A04303F588235A60302202FB0575637BF8
S315080023F02B66E37AA27A1B0543EA0243227B43EA69
S315080024004253EB6528F003032B6701F0F6FC7B6D5E
S3150800241033437B65237A13B13B6C33433B64637A5E
S3150800242013B1BB6B3343BB632279A37943EA0243F7
S31508002430084A93616179E37943EA014307498B6165
S31508002440054B56639E64BDE8F04101F0DCBC00BF55
S315080024506E47000800200450000004500010045085
S3150800246010B50124C3B2072804FA03F404DD40F2C8
S315080024709711074801F051FC01F0BFFC054B5A6D56
S3150800248022EA04025A659C62BDE8104001F0BBBC12
S315080024906E4700080000045010B50124C3B207288F
S315080024A004FA03F404DD40F2B5110A4801F035FCDC
S315080024B001F0A3FC084BDA6A224208D15B6B9C4305
S315080024C00CBF0124002401F09EFC204610BD002408
S315080024D0F9E700BF6E470008000004504FF4803249
S315080024E0064B5A6603F5E6239B69C3F38512827089
S315080024F003F03F021B0B42700370704700900050B8
S31508002500F8B507460C461D4616464AB94FF4A1715A
S31508002510314801F002FC24B1402D09D1062328E0F8
S3150800252021B94FF42070FFF755F80446402D42D0E4
S31508002530402D09D87DB1202D17D040F28911BDE86C
S31508002540F840254801F0E9BB602DF6D1B6EB940FAB
S315080025503CD804230DE0B6EB141F04D94FF4BA7126
S315080025601D4801F0DAFB102303E0B6EBD40F1CD8A4
S3150800257008235E43730803EB4413B3FBF6F3174EC5
S31508002580203BB6EBC30F4FEAC30404D24FF4D07115
S31508002590114801F0C2FBBB68344023F06003BB60FE
S315080025A0BB681D43BD60FC61F8BD40F279110A485D
S315080025B001F0B3FBDCE70623B4FBF3F3B342ADD279
S315080025C04FF4BF71044801F0A8FBA7E740F2831156
S315080025D0014801F0A2FBBCE709480008F8FF7F00A4
S315080025E070B506460C46154622B940F28E210C48AF
S315080025F001F093FB24B94FF42070FEF7EBFF044675
S315080026006D00013CB4FBF5F4064B250213EA0423DE
S3150800261004D040F2B321024801F07FFBF56170BD9A
S3150800262009480008070080FF38B50C4B0446984255
S315080026300D4604D04FF43371094801F06EFB0122B0
S3150800264004F580535A60EB43934003F00A03636131
S31508002650656115B904F50054626038BD00C00550BF
S315080026600948000810B5124B0446984204D040F2B7
S315080026704241104801F051FB012104F5805359608D
S3150800268040F6AA6341F20502636100230A48A36083
S31508002690E365E26004F500522361E361E364906454
S315080026A00348A365844204BF23656365516010BD72
S315080026B000C0055009480008FFFF010070B5304BFF
S315080026C0044698420D4604D040F2FD212D4801F0FB
S315080026D024FB2046FFF7C6FF012304F580567360E6
S315080026E0AB7C1BB1A36843F08043A360EB7C5BB172
S315080026F0234B9C4202BF2A7DA3F51033C3F8C82199
S31508002700E36D43F08003E3652A8A6B7B2046134317
S31508002710EA891343E3602B7BD5E90112FFF7F0FE44
S315080027206B7D1BB1A36843F48033A360AB7D1BB1FB
S31508002730A36843F40043A360EB7D2A7E1B071205BA
S3150800274002F4E00203F0E0431343A3656B7E9A1E8E
S31508002750012A4FF0020209D80B49032BC1F820279A
S3150800276009D10423F3652B78636170BD0749012BF2
S31508002770C1F82027F4E7042204F50053DA65F2E7E6
S3150800278000C005500948000800D0035000E0035077
S3150800279038B5294B044698420D4604D040F26931B3
S315080027A0264801F0BAFA2046FFF75CFF012204F535
S315080027B080535A602B8AA26843F001031343AA7B0D
S315080027C043EA8223A360A3682A7D43EA4273A3608F
S315080027D0AB7C5BB1184B9C4202BFEA7CA3F5103375
S315080027E0C3F8C821E36D43F08003E3652B7B2046DD
S315080027F0D5E9011243F48053E360FFF7F1FE6B7BE2
S315080028000BB1102363616B7D1BB1A36843F480335E
S31508002810A360AB7D1BB1A36843F40043A360EB7DC3
S315080028202A7E1B07120503F0E04302F4E002134375
S31508002830A3652B78636138BD00C0055009480008B8
S3150800284007B5094B18689A889B7900906846ADF8D1
S3150800285004208DF80630FFF705FC0920FFF73AFC3F
S31508002860002003B05DF804FB5848000813B500249F
S31508002870064A6846536F43F00103536700948DF880
S315080028800440FFF723FB204602B010BD004000506D
S3150800289030B58BB06C46174D0FCD0FC40FCD0FC496
S315080028A095E8030084E80300134BD3F84C21120380
S315080028B01CD5A3F5FE431C884FF6FF739C4208BF40
S315080028C05F248DF81940FFF7CDF9204480F30800FE
S315080028D08DF818000948FEF70FF86846FFF7B0F8B4
S315080028E03220FFF72DFA00200BB030BDD3F8504147
S315080028F0E4B2E6E7604800080080E00FC01753021C
S3150800290030B587B0084D01AC0FCD0FC42B6801A8B0
S3150800291023602C238DF80530FFF7AAF93220FFF73C
S3150800292009FA002007B030BD8848000810B56FF0D6
S31508002930040350210A480B4C13F0800F03F10102DF
S3150800294007D123444C2A83F800131346F4D10020F8
S3150800295010BD03F00F03043B034419761346EBE757
S3150800296000ED00E000E100E010B5044601F03EFA93
S31508002970024B1C6001F03EFA002010BD80120020B8
S3150800298010B501F033FA034B1C6801F033FA204600
S3150800299010BD00BF8012002010B50020144601F0BB
S315080029A056FA022804D018B1C321024801F0B5F935
S315080029B0204610BD9C480008034B022218680023D5
S315080029C08068194600F01EBC2010002038B5302259
S315080029D0037A0446534303F1A04303F58023DD6ECF
S315080029E0D0E9032313449D4201D8AA4204D94FF4DF
S315080029F03E71054801F091F9D4E9030303449D4269
S31508002A0018BF284638BD00BF0849000830B587B04A
S31508002A10144605461046FFF7D9FF63690246834206
S31508002A203CBFD4E903315B181B1AABB112490494B5
S31508002A3003910021CDE90131012300932846D4E909
S31508002A40001301F082F920B14FF434710B4801F0FC
S31508002A5064F9002007B030BD0122627694F82D2073
S31508002A60002AF6D084F835301321E36920469847C2
S31508002A702046636A9847ECE70D2A000808490008CB
S31508002A802DE9F04788B004460F461646984601F0E9
S31508002A90B4F98146002E00F0AD80237E03F0FF02D4
S31508002AA0002B00F0E0802046FFF790FF636982461E
S31508002AB0984206D1637E23B940F27F316B4801F014
S31508002AC02CF96569AA459DBFD4E903329B185D1B9D
S31508002AD0AAEB0505B54228BF354601F08EF994F8EC
S31508002AE02D308246002B40F096802A46384661698A
S31508002AF001F029FB63692E462B4463612CE060696B
S31508002B00037803F0FD01112940F08280216B884289
S31508002B1005D1A3F111014B424B4184F83430013EF3
S31508002B206369216B01328B4203F1010308BF2363FA
S31508002B3063619542E3D1D4E90323216B1344994297
S31508002B4008BF2263216B8A4201D88B4204D84FF40E
S31508002B506D71464801F0E1F8D4E90323616913442D
S31508002B60994208BF626161698A4201D88B4204D8DA
S31508002B704FF471713D4801F0D0F80023207A63764E
S31508002B80FEF73CF920B140F21131384801F0C5F89A
S31508002B902046FFF71BFF636983423FD10023E568A0
S31508002BA0237694F82D30656103B125632046636A60
S31508002BB098472F4B049403930023029323692A46CC
S31508002BC001930123009363682168207A01F0BDF818
S31508002BD020B140F22D31254801F09FF8207AFEF702
S31508002BE02DF920B140F25131204801F096F85046AF
S31508002BF001F009F94846C8F8006001F004F9D8F868
S31508002C000030002B0CBF1B20002008B0BDE8F08761
S31508002C1007F8013B84E72E4600228AE70123207A3B
S31508002C2023760DF11E01FEF771F920B14FF45071AC
S31508002C300E4801F072F89DF81E30207A002BCDD090
S31508002C400DF11F01FEF73AF920B140F24631074867
S31508002C5001F063F89DF81F10207A0029BED122469C
S31508002C60FFF7D4FEBAE71646C4E700BF08490008CE
S31508002C700D2A000870B504460568FFF781FE8442F0
S31508002C8002D10020FFF770FE95F93630002B11DBD4
S31508002C90012203F01F015B099B0003F160438A4090
S31508002CA003F56143C3F88021C3F88020BFF34F8F33
S31508002CB0BFF36F8F287AFEF7E1F820B14FF4ED7174
S31508002CC0104801F02AF8287AFEF73EF820B14FF4AA
S31508002CD0EF710C4801F021F8FEF714F838B10A4BE9
S31508002CE0984204D04FF4F171064801F016F8002313
S31508002CF02846C4E90033C4E90433A360AB6ABDE8D7
S31508002D007040184708490008058000F02DE9F84387
S31508002D1004460D4690F82C80DFF8AC908E18AE422B
S31508002D2028D094F82D3083B101F067F8237E074642
S31508002D301BBB226B63699A4204D040F2F9114846DC
S31508002D4000F0EBFF384601F05EF894F83430002BBB
S31508002D50E5D0B8F1000F06D02B780A2B03D10D2148
S31508002D602046E36998472046E36915F8011B98470A
S31508002D700028D4D00020BDE8F8832046FFF726FEB9
S31508002D80E1680138884238BF2069D4F830C03CBFB2
S31508002D9000F1FF30401803469C450BD013F8012973
S31508002DA0112A01D0132A07D1A2F111035A425A4116
S31508002DB084F834202063C5E7994282BF236903F16A
S31508002DC0FF335B18E8E700BF08490008F0B587B08D
S31508002DD00C46064615460021382220461F4601F0B5
S31508002DE0A7F995E8030000232A692376EB6884E8A7
S31508002DF00300C4E904232A7DE36084F82C20AA7D15
S31508002E002363012384F8343084F835300C9B84F826
S31508002E102D2023620D9BE76163620E9BA3622B7ACA
S31508002E2084F83630204B34607360204BB360204BF7
S31508002E303361204B7361204BF360FDF7ABFF30B174
S31508002E401E4B984203D01024204607B0F0BD00213F
S31508002E5004F10800FDF726FF0028F4D10127184BD6
S31508002E600494CDE902032369009701936368E26835
S31508002E702168207A00F069FF04460028E3D195F915
S31508002E800830002B0BDB03F01F025B099B0003F1E4
S31508002E906043974003F56143C3F880711F6030466D
S31508002EA0FFF762FDD0E700BF0D2D0008812A000854
S31508002EB0333F0008393F0008752C0008038000F0EE
S31508002EC00D2A00082DE9F04186B01C46584B01270B
S31508002ED00293584B0C9D01930023904600930A4693
S31508002EE0CDE903772946544BFFF770FF06460028BD
S31508002EF040F0958023683946AB6363683A20EB63F4
S31508002F00637A85F84130237A85F84030E37A85F884
S31508002F104330A37A85F84230637B85F84530237BB6
S31508002F2085F84430E37B85F84730A37B85F846303F
S31508002F30FEF728FB3B460422617A207AFFF73CF924
S31508002F403B460222E17AA07AFFF736F939466068ED
S31508002F50FEF718FB88F8006041462068FFF7AEFBCD
S31508002F601420617C354B01F1390252019850607A80
S31508002F70227A03EB411342EA0042C3F83827E17A82
S31508002F80A27A42EA0142C3F8302785F8486098F8E1
S31508002F901930032B49D8DFE803F03946021C02230F
S31508002FA085F8483000230422E17BA07BFFF704F96B
S31508002FB00220617C214B01F1B9025201985003EBC2
S31508002FC0411341F22C71E07BA27B42EA00425A503F
S31508002FD01CE0012785F8483002220023617B207B0C
S31508002FE0FFF7EAF8617B227B637C42EA014241F201
S31508002FF028715B0103F1A04303F570335A5004228C
S31508003000236803F58053DA65002FCBD1AA6B052117
S31508003010D36C206843F00403D364FFF705FB3046FE
S3150800302006B0BDE8F0810027D4E72326F7E700BFFE
S315080030304B3F00083F3F0008C33F000800C003504D
S3150800304010B50446FDF73CFC4FF47A729042B0FB8B
S31508003050F2F105D23621BDE810400C4800F05DBEFD
S315080030600B4BB3FBF1F30B49884201D93C21F2E73C
S3150800307002FB04F0B0FBF3F0022806D9BDE81040C5
S315080030800323B0FBF3F0FDF773B810BD6A490008D7
S3150800309040420F00E7CD9A3B08B5064B044613B1EC
S315080030A00021AFF30080044B1B6803B19847204604
S315080030B000F027FF00000000BC130020002310B515
S315080030C004468360818119464366C281082283616A
S315080030D0C0E90033C0E904335C3001F029F80D4B30
S315080030E0246263620C4BA3620C4BE3620C4B2363B2
S315080030F00C4B9C4206D003F16802944202D0D033AE
S315080031009C4205D104F15800BDE8104001F018B8FA
S3150800311010BD00BFAB400008CD40000805410008BF
S315080031202941000884120020024A0349034800F096
S315080031309EBF00BF141000209D43000824100020E5
S3150800314041680C4B994210B5044601D001F026F9A6
S31508003150A168094B994202D0204601F01FF9E1689F
S31508003160064B994204D02046BDE8104001F016B936
S3150800317010BD00BF84120020EC120020541300205A
S3150800318010B50B4B04210B4C0B4A20461A60002243
S31508003190FFF794FF04F1680001220921FFF78EFF6B
S315080031A004F1D00002221221BDE81040FFF786BFC5
S315080031B0BC1300208412002029310008014800F0C1
S315080031C0C0BF00BFF1130020014800F0BBBF00BF1D
S315080031D0F113002010B50446FFF7F0FF236A1BB170
S315080031E0BDE81040FFF7F0BF044B2362044B1B6891
S315080031F0002BF5D1FFF7C4FFF2E700BF4131000805
S31508003200BC1300202DE9F7431D46574B04460E46CE
S315080032101F68904627B13B6A13B93846FFF7DAFFAD
S31508003220B8F1020F06D0B8F1010F00F29980002D0F
S31508003230C0F29680636ED90705D4A3899A0502D48D
S31508003240A06D00F07EFF2146384601F0A7F8616BB5
S3150800325041B104F14403994202D0384600F0FAF825
S31508003260002363630023A3616360A3891B0603D558
S315080032702169384600F0EEF8A389B8F1020F23F465
S315080032804A6323F00303A38160D001AB6A46214653
S31508003290384601F0ABF8A3891843A0812DBB009DE1
S315080032A0284600F021F90646002851D1DDF800909D
S315080032B0A9453FD14FF0FF35B4F90C3043F002026F
S315080032C0A2810022A26004F1470222602261012243
S315080032D06261626ED60704D4980502D4A06D00F028
S315080032E031FF284603B0BDE8F083002ED8D03B6AEC
S315080032F013B93846FFF76EFFB8F1010F266002BF13
S31508003300A38943F00103A381B4F90C3013F0080232
S31508003310C4E904651ED0D90745BF00226D42A560E1
S31508003320A26048BFA561626ED20701D49B0513D57A
S315080033300025D6E7484600F0D7F806460028B9D053
S31508003340A3894D4643F08003A381D0E70025B3E760
S31508003350A946F5E7A260E6E7A06D00F0F3FEE7E709
S315080033604FF0FF35BDE700BF201000200B4603498C
S3150800337002460868816800F065B900BF2010002081
S3150800338038B50023054D044608462B6000F0B7FD06
S31508003390431C02D12B6803B1236038BDC01300203B
S315080033A038B50446064D0846114600222A601A46D4
S315080033B000F0AFFD431C02D12B6803B1236038BD72
S315080033C0C013002038B50446064D084611460022AB
S315080033D02A601A4600F09FFD431C02D12B6803B1F0
S315080033E0236038BDC013002038B50446064D08468C
S315080033F0114600222A601A46FFF7CEFA431C02D16C
S315080034002B6803B1236038BDC013002070B50D4D7D
S3150800341000260D4C641BA410A64209D10B4D0026AC
S315080034200B4C01F09DF8641BA410A64205D170BD93
S3150800343055F8043B01369847EEE755F8043B013644
S315080034409847F2E7781000207810002078100020BE
S315080034507C10002038B50546002941D051F8043CB7
S315080034600C1F002BB8BFE41800F0E0F81D4A1368DB
S3150800347033B9636014602846BDE8384000F0DCB80C
S31508003480A34208D9206821188B4201BF19685B68D6
S3150800349009182160EDE71A465B680BB1A342FAD911
S315080034A011685018A0420BD12068014450181160C9
S315080034B08342E0D118685B68084453601060DAE715
S315080034C002D90C232B60D6E7206821188B4202BF4D
S315080034D019685B680918636008BF21605460CAE709
S315080034E038BD00BFC8130020024B0146186800F01B
S315080034F025B800BF2010002070B50F4E0C460546B3
S31508003500316811B900F05AFB30602146284600F0B0
S3150800351055FB431C03D14FF0FF34204670BDC41C35
S3150800352024F00304A042F8D0211A284600F046FBEE
S315080035300130F2D1EFE700BFC41300202DE9F041B6
S31508003540CD1C064625F0030508350C2D38BF0C257D
S31508003550002D01DBA94204D90C2333600020BDE805
S31508003560F081314F00F062F83B681C4644BB29469F
S315080035703046FFF7C1FF431C044650D13C6821463C
S31508003580002941D1002C44D02368304604EB0308B7
S3150800359000F014FB80453CD1216830466D1A294657
S315080035A0FFF7AAFF013034D023682B4423603B6819
S315080035B0002B36D05A68A24229D100225A600EE062
S315080035C02268521B1DD40B2A16D96119A3422560FD
S315080035D018BF5960636808BF396062514B6030464E
S315080035E000F02AF804F10B00231D20F00700C21A88
S315080035F0B5D01B1AA350B2E7A3426268DED13A607F
S31508003600EDE723466468B1E70C464968B8E7134610
S31508003610CEE70C233046336000F00EF89EE70560CF
S31508003620DDE75B60FFDE00BFC8130020014800F03D
S3150800363088BD00BFF0130020014800F083BD00BF1D
S31508003640F01300202DE9F04F0D469DB0144698461C
S31508003650064618B1036A0BB9FFF7BCFD6B6ED907AE
S3150800366005D4AB899A0502D4A86D00F06AFDAB892A
S315080036701B0701D52B699BB92946304600F026FA67
S3150800368070B16B6EDC0704D54FF0FF301DB0BDE896
S31508003690F08FAB899805F7D4A86D00F053FDF3E7D2
S315080036A00023CDF80C804FF00109DFF8B4810993A7
S315080036B020238DF8293030238DF82A3023469A4660
S315080036C013F8012B0AB1252AF9D1BAEB040B0BD052
S315080036D05B4622462946304600F059FD013000F087
S315080036E0A780099A5A4409929AF80030002B00F0EC
S315080036F09F8000234FF0FF320AF1010A04930793D3
S315080037008DF853301A93CDE90523544605225448BB
S3150800371014F8011B00F009FF049AD8B9D10644BF72
S3150800372020238DF85330130744BF2B238DF85330CD
S315080037309AF800302A2B15D0079A544600204FF0E5
S315080037400A0C214611F8013B303B092B4BD9B0B185
S31508003750079214E0A0EB0803A24609FA03F3134301
S315080037600493D2E7039B191D1B68002B0391BBBF6B
S315080037705B4242F0020207930793B8BF049223788C
S315080037802E2B0AD163782A2B32D1039B02341A1DB9
S315080037901B6843EAE37303920593DFF8D4A0032278
S315080037A02178504600F0C1FE38B1A0EB0A0040224D
S315080037B0049B013482401343049314F8011B062228
S315080037C028488DF8281000F0B0FE00283FD0264B78
S315080037D01BBB039B073323F0070308330393099B9B
S315080037E03B4409936AE70CFB02320C460120A8E722
S315080037F0002301344FF00A0C19460593204610F8A9
S31508003800012B303A092A03D9002BC6D00591C4E703
S315080038100CFB012104460123F0E703AB2A4604A961
S3150800382030460093114BAFF300800746781CD6D17B
S315080038306B6ED90705D4AB899A0502D4A86D00F03A
S3150800384081FCAB895B063FF51FAF09981EE703AB02
S315080038502A4604A930460093044B00F00BF8E4E727
S31508003860C3490008CD490008000000008F41000840
S31508003870C94900082DE9FF470F7E914680460C4648
S31508003880782F9A460C9E01F1430207D8622F0AD870
S31508003890002F00F0DD80582F00F0C38004F14206A7
S315080038A084F842703AE0A7F16303152BF6D801A114
S315080038B051F823F00D390008213900089D38000811
S315080038C09D3800089D3800089D38000821390008F1
S315080038D09D3800089D3800089D3800089D38000866
S315080038E0373A0008AF390008EF3900089D38000854
S315080038F09D380008593A00089D380008AF39000875
S315080039009D3800089D380008F739000833681A1DE5
S315080039101B68326004F1420684F842300123A8E0AD
S3150800392031682368081D30601E0601D50D6803E05E
S315080039305D06FBD5B1F90050002D616878DA2D20B7
S315080039400029A16084F843002DDA6D425D480A23F8
S315080039501646B5FBF3F103FB1157C75D06F8017D63
S315080039602F460D46BB42F4D9082B0BD12368DF0737
S3150800397008D5236961689942DEBF302306F8013C01
S3150800398006F1FF36921B22614B4603AA21464046A2
S31508003990CDF800A000F00DFC01306FD14FF0FF30DC
S315080039A004B0BDE8F08723F004032360CDE721685F
S315080039B03368080653F8045B02D4490648BFADB21B
S315080039C06F2F33603F4814BF0A230823002184F869
S315080039D043106668002EA660BADB216821F0040150
S315080039E02160002DB4D1002EB2D11646BCE723685B
S315080039F043F02003236078273348236884F845700A
S31508003A001F06316851F8045B02D45F0648BFADB2A1
S31508003A103160D90744BF43F0200323601DB110234A
S31508003A20D4E72848E9E7236823F020032360F6E76C
S31508003A3024480A23CDE733682568181D6169306074
S31508003A402E061B6801D5196002E06806FBD51980A9
S31508003A5000231646236197E7336800211A1D326052
S31508003A601E686268304600F060FD08B1801B606021
S31508003A7063682361002384F8433085E72369324667
S31508003A8049464046D047013088D023689B0714D45E
S31508003A90E068039B9842B8BF184681E7012332467F
S31508003AA049464046D04701303FF478AF0135E368D0
S31508003AB003995B1AAB42F1DCEAE7002504F1190623
S31508003AC0F5E700BFD4490008E549000838B5294B91
S31508003AD005460C46186818B1036A0BB9FFF77AFB56
S31508003AE0B4F90C30190722D4DA0607D409222A6059
S31508003AF043F040034FF0FF30A38133E0580712D557
S31508003B00616B41B104F14403994202D02846FFF79C
S31508003B10A1FC00236363A38923F02403A381002364
S31508003B20636023692360A38943F00803A38123699B
S31508003B304BB9A38903F42073B3F5007F03D021465C
S31508003B40284600F078FCB4F90C3013F001020AD0CC
S31508003B500022A26062695242A261226942B913F048
S31508003B608000C5D138BD990758BF6269A260F4E7DD
S31508003B700020F7E72010002038B50023064D04463C
S31508003B80084611462B6000F0BDF9431C02D12B688C
S31508003B9003B1236038BD00BFC013002038B5002329
S31508003BA0054D044608462B6000F0B1F9431C02D1C6
S31508003BB02B6803B1236038BDC013002038B5002335
S31508003BC0054D044608462B60FCF7F2FE431C02D15D
S31508003BD02B6803B1236038BDC013002000F01DB860
S31508003BE008B5FCF7F5FEBDE8084000F06AB808B568
S31508003BF000F011F8FEF7E0FEBDE80840FCF728BC27
S31508003C007047FCF711BD7047704770477047FCF75F
S31508003C102DBC704770470F20704708B50023042253
S31508003C2019460120FEF7C8FA002008BD08B501218B
S31508003C303A20FDF7A7FCFFF7D1FFBDE80840FCF7DF
S31508003C401FBD01213A20FDF79DBC70B5002506462B
S31508003C502C46052C20D8DFE804F003070B0F1317B2
S31508003C605B210820FCF73EFF0C210820FCF73AFFF1
S31508003C70D1210820FCF736FF80210820FCF732FF07
S31508003C8000210820FCF72EFF6C1C2946E4B2082008
S31508003C902546FCF727FF0624A4F10E03012B05D8B9
S31508003CA05A210820FCF71EFF0134D2E7102C05D153
S31508003CB0BDE870405D210820FCF714BFB31F195DED
S31508003CC0EFE708B5082000F029F8BDE80840082005
S31508003CD000F02FB807B5012320F07F4040EA817035
S31508003CE0019068468DF80030FFF7AFFF03B05DF826
S31508003CF004FBFEE710B53AB1002350F8234041F81B
S31508003D00234001339A42F8D110BD002070474FF482
S31508003D10004070474FF47A707047FEE74FF06042F4
S31508003D200123D2F8001E83400B430020C2F8003E50
S31508003D3070474FF060410122D1F8003E824023EAE5
S31508003D4002030020C1F8003E704710B588B004464B
S31508003D500E98009207900D98224606909DF830001E
S31508003D6005900B9804909DF8280003900020CDE953
S31508003D7001300B460121FCF7D7FE08B010BD70B51F
S31508003D80054614460E4600F031F82B685C40344070
S31508003D905C402C60BDE8704000F02CB808B5FCF714
S31508003DA0A1FDBDE808400021FDF7C0BB0029CCBF36
S31508003DB001210021FDF7BABB02214FF42070FDF75F
S31508003DC0C5BF10B5FCF77CFD0446FDF7FBF8C0F14E
S31508003DD002012046FFF7EAFF01210020FEF7D4F88A
S31508003DE0FEF75AF8BDE81040FDF7F6BCEFF3108071
S31508003DF072B6704700B962B67047EFF31180302388
S31508003E0083F31188704780F31188704770477047AD
S31508003E1070B5054614460E46FFF7E8FF2B685C406A
S31508003E2034405C402C60BDE87040FFF7E3BF704744
S31508003E3083695A06FCD5C16383699B06FCD5406A2B
S31508003E40C0B2704783695B06FCD5C163704770B51D
S31508003E500C46154610B9FEF793FD38B143682BB1E9
S31508003E602A462146BDE8704000681847232070BDE1
S31508003E70F7B50D4616461C4648B103B901AC876826
S31508003E805FB12346324629460068B84706E0FEF782
S31508003E9077FD04B901AC0028F1D1232003B0F0BDA9
S31508003EA0F8B50C461546064658B9FEF769FD20468C
S31508003EB02946FFF75BFA0446002CD4BF37200020BA
S31508003EC0F8BDFEF75DFD86420746F0D03046FEF7A0
S31508003ED04BFD29462046FFF749FA04463846FEF7C1
S31508003EE043FDE9E70EB403B503AA52F8041B019291
S31508003EF0FFF7D6FF02B05DF804EB03B07047002069
S31508003F007047FEE74FF4005300204B6070470120CE
S31508003F1070470020704707B5002001AB0190FFF7F6
S31508003F20A7FF0198002808BF4FF0FF3003B05DF8DF
S31508003F3004FB80F82C10704790F82C007047826BB1
S31508003F40D36C43F00403D364704710B50446826B00
S31508003F5093695906FCD5002394F841101A4694F83B
S31508003F604000FEF729F9002394F843101A4694F8FE
S31508003F704200FEF721F994F84830DA0707D50023FE
S31508003F8094F845101A4694F84400FEF715F994F883
S31508003F9048309B0707D5002394F847101A4694F82B
S31508003FA04600FEF709F9A06B0021C36C23F0040351
S31508003FB0C364FEF739FBE06B0021FDF7E3FA002046
S31508003FC010BD08B5806BFFF73DFF002008BD38B56A
S31508003FD00468237EA06B33B9C36C23F00403C3645F
S31508003FE00123237638BD637E23B394F82D300BB3B3
S31508003FF00025132184F83550FFF724FFA36BDA6CEC
S3150800400042F00402DA645B6ADBB2112B0DD101239C
S3150800401084F834303022237A534303F1A04303F55E
S315080040208023DB6E013B2363DCE7132BDAD184F8AC
S315080040303450EFE7C36C23F00403C364D2E708B532
S31508004040FCF776F9FFF7CCFDFFF7D1FDFFF7D8FDB2
S31508004050BDE80840FFF7D5BD08B5FFF7D4FDFFF763
S31508004060D3FDFFF7D2FDBDE80840FFF7CFBD2DE928
S31508004070F8430746884614460026D4E90195B9F15F
S31508004080010905D52468002CF7D13046BDE8F88328
S31508004090AB89012B07D9B5F90E30013303D0294670
S315080040A03846C04706436835E9E710B50C46B1F906
S315080040B00E10FFF787F90028ABBF636DA3891B189D
S315080040C023F48053ACBF6365A38110BD2DE9F0418D
S315080040D01F468B8905460C46DB05164605D5022381
S315080040E00022B1F90E10FFF75BF9A3893246B4F93D
S315080040F00E10284623F48053A3813B46BDE8F041C1
S31508004100FFF772B910B50C46B1F90E10FFF748F96A
S31508004110431CA38915BF606523F4805343F4805379
S31508004120A38118BFA38110BDB1F90E10FFF728B9F6
S3150800413002440346934200D1704703F8011BF9E78E
S315080041407047704770470A44431E914200D1704732
S3150800415010B511F8014B914203F8014FF9D110BD82
S315080041609368013B002B936010B408DA9469A34264
S3150800417001DB0A2903D15DF8044B00F098B91368EE
S31508004180581C1060084619705DF8044B7047F8B55E
S3150800419006460F461446D518AC4201D1002007E062
S315080041A03A4614F8011B3046FFF7DAFF431CF3D1F1
S315080041B0F8BD2DE9F047164698468A6807460B6902
S315080041C00C46DDF820909342B8BF1346336091F849
S315080041D043200AB1013333602368990642BF336826
S315080041E002333360256815F0060506D104F1190A6D
S315080041F0E36832689B1AAB422BDC94F8433022689A
S31508004200003B18BF0123920630D404F1430241460D
S315080042103846C847013023D023681A3454F80A2C84
S3150800422003F00603042B0ABF54F80E5C0025336816
S315080042304FF0000608BFED1A54F8123C08BF25EAED
S31508004240E5759342C4BF9B1AED18B5421AD10020F2
S3150800425008E00123524641463846C847013003D193
S315080042604FF0FF30BDE8F0870135C1E7E1185A1C69
S3150800427030200233224481F8430094F8451082F82E
S315080042804310C2E70123224641463846C847013053
S31508004290E6D00136D9E7B1F90C202DE9F041170728
S315080042A005460C4656D44B68002B02DC0B6C002BDB
S315080042B03DDDE66A002E3AD0002312F480522F68BC
S315080042C0216A2B6025D0626DA389580705D56368D6
S315080042D0D21A636B0BB1236CD21A216A0023E66AE1
S315080042E02846B047411C24D0002363602369236015
S315080042F0A389DA0400D56065616B2F60B9B104F152
S315080043004403994202D02846FFF7A4F800236363C2
S315080043100DE001232846B047461C0246D4D12B6837
S31508004320002BD1D01D2B01D0162B2AD12F600020AF
S315080043302EE02A68B4F90C3042B11D2A01D0162A9B
S3150800434021D10023636023692360D5E7626022696F
S315080043502260CEE70F69002FE9D093070E680F6039
S315080043600CBF4B690023A6EB07088B60B8F1000F5A
S31508004370DDDD43463A46216A2846A66AB047002844
S3150800438008DCB4F90C3043F040034FF0FF30A3814A
S31508004390BDE8F0810744A8EB0008E7E738B50B69E4
S315080043A005460C4613B90025284638BD18B1036AD8
S315080043B00BB9FEF70FFFB4F90C30002BF3D0626E81
S315080043C0D00704D4990502D4A06DFFF7BAFE284693
S315080043D02146FFF760FF636E0546DA07E4D4A38932
S315080043E09B05E1D4A06DFFF7ADFEDDE770B50C4681
S315080043F0B1F90E1096B0154600291E460CDAA389A7
S31508004400002113F0800F14BF40234FF4806300206F
S3150800441031602B6016B070BD6A46FFF7ADFB002809
S31508004420EDDB019901F47041A1F500535942594158
S315080044304FF48063EBE78B89F7B59D0706460C4674
S3150800444007D504F14703236023610123636103B0A1
S31508004450F0BD01AB6A46FFF7C9FF009F0546304627
S315080044603946FFF76BF848B9B4F90C309A05EED41B
S3150800447023F0030343F00203A381E2E7A389206044
S3150800448043F08003A381019BC4E904075BB1B4F937
S315080044900E103046FFF782FB28B1A38923F00303E9
S315080044A043F00103A381A3891D43A581CFE7F8B58E
S315080044B00E461446054618B1036A0BB9FEF78AFE7E
S315080044C0A369A360A3891A0701D5236943B92146BD
S315080044D02846FFF7FBFA18B14FF0FF373846F8BD04
S315080044E02368F6B222693746981A6369834205DC5F
S315080044F021462846FFF752FF0028EDD1A368013B65
S31508004500A36023685A1C22601E70431C62699A4283
S3150800451004D0A389DB07E1D50A2EDFD12146284638
S31508004520FFF73CFF0028D9D0D6E7C9B203460244B4
S3150800453010B59342184601D1002003E004780133F0
S315080045408C42F6D110BD00000000000000000000FB
S31508004550000000000000000000000000000000004D
S31508004560F8B500BFF8BC08BC9E467047F8B500BF52
S31508004570F8BC08BC9E46704700000000000000001A
S31508004580000000000000000000000000000000001D
S31508004590000000000000000000000000000000000D
S315080045A02E2E2F6175746F67656E2F736C5F696F3A
S315080045B073747265616D5F696E69745F7573617234
S315080045C0745F696E7374616E6365732E63000000B1
S315080045D0050000000000000000C201000005000000
S315080045E000100000000000000000000048756D2063
S315080045F03D2025642E256420252520090054656D57
S3150800460070203D2025642E256420256F43200A004E
S31508004610050000000000000040420F0005010000F0
S315080046200000000000000000000000001E0000035B
S31508004630433A2F55736572732F46505453484F505B
S315080046402F53696D706C69636974795374756469FD
S315080046506F2F53444B732F6765636B6F5F73646B80
S315080046602F706C6174666F726D2F656D6C69622F41
S315080046707372632F656D5F636D752E6300433A2F02
S3150800468055736572732F46505453484F502F5369CC
S315080046906D706C696369747953747564696F2F53A7
S315080046A0444B732F6765636B6F5F73646B2F706C16
S315080046B06174666F726D2F656D6C69622F737263B4
S315080046C02F656D5F656D752E6300633A5C7573655E
S315080046D072735C66707473686F705C73696D706C06
S315080046E0696369747973747564696F5C73646B73F1
S315080046F05C6765636B6F5F73646B5C706C61746633
S315080047006F726D5C656D6C69625C696E635C656D24
S315080047105F6770696F2E6800433A2F557365727329
S315080047202F46505453484F502F53696D706C696328
S3150800473069747953747564696F2F53444B732F6783
S3150800474065636B6F5F73646B2F706C6174666F72F1
S315080047506D2F656D6C69622F7372632F656D5F6768
S3150800476070696F2E6300FF033F00FF033F00433A63
S315080047702F55736572732F46505453484F502F5315
S31508004780696D706C696369747953747564696F2FA0
S3150800479053444B732F6765636B6F5F73646B2F703E
S315080047A06C6174666F726D2F656D6C69622F7372BA
S315080047B0632F656D5F6C646D612E6300633A5C758B
S315080047C0736572735C66707473686F705C73696D19
S315080047D0706C696369747973747564696F5C736402
S315080047E06B735C6765636B6F5F73646B5C706C613E
S315080047F074666F726D5C656D6C69625C696E635C2C
S31508004800656D5F6275732E6800433A2F557365723E
S31508004810732F46505453484F502F53696D706C6927
S315080048206369747953747564696F2F53444B732F96
S315080048306765636B6F5F73646B2F706C6174666F0B
S31508004840726D2F656D6C69622F7372632F656D5F6C
S3150800485075736172742E6300010310010109030068
S315080048600B0000000C0000000300000000002020E0
S3150800487000000000020000003C3C3C000000000074
S3150800488000000000000000000126000004000000EF
S31508004890000000000001000000000000433A2F5508
S315080048A0736572732F46505453484F502F53696D92
S315080048B0706C696369747953747564696F2F5344AE
S315080048C04B732F6765636B6F5F73646B2F706C61D7
S315080048D074666F726D2F736572766963652F696F7B
S315080048E073747265616D2F7372632F736C5F696F72
S315080048F073747265616D5F72657461726765745F02
S31508004900737464696F2E6300433A2F557365727327
S315080049102F46505453484F502F53696D706C696336
S3150800492069747953747564696F2F53444B732F6791
S3150800493065636B6F5F73646B2F706C6174666F72FF
S315080049406D2F736572766963652F696F7374726507
S31508004950616D2F7372632F736C5F696F7374726501
S31508004960616D5F756172742E6300433A2F557365E6
S3150800497072732F46505453484F502F53696D706CBD
S31508004980696369747953747564696F2F53444B73FB
S315080049902F6765636B6F5F73646B2F706C617466EA
S315080049A06F726D2F736572766963652F7564656CB2
S315080049B061792F7372632F736C5F7564656C6179A7
S315080049C02E6300232D302B2000686C4C006566672B
S315080049D04546470030313233343536373839414267
S315080049E04344454600303132333435363738396139
S30D080049F06263646566000000BD
S30D080049F810B8FF7F0100000062
S31108004A000C4A00080010002020000000EE
S31508004A0CC0EA2101C0EA210100800000C017530248
S31508004A1CF813002000000000030000008412002098
S31508004A2C241000200000000084120020EC12002044
S31508004A3C54130020000000000000000000000000D5
S31508004A4C000000000000000000000000000000004C
S31508004A5C000000000000000000000000000000003C
S31508004A6C000000000000000000000000000000002C
S31508004A7CFFFFFFFF1F040128E5010008BD01000820
S705080007B536
